:02000004080AE8
:1000000000000A0868250A0800000600060005012D
:080010000402FD0800000000DD
:040018004C230A0863
:10001C0009480A4908B5884205D0094A824202D0EB
:10002C00121A02F0E3F80748074A0021121A02F0EC
:10003C00EBF8064808BD00BF00000020D4240A08D5
:10004C006C0000206C000020FD010020FD01002050
:10005C0070B501F02BFD0025054E064CA41BA40821
:10006C00A54200D170BD56F8043B98470135F7E71F
:10007C00AC240A08D0240A0800F016B808B500F021
:10008C0065F8BDE8084001F0C9BC01F0BFBB01F048
:10009C00BDBB01F0C3BB0078B0FA80F040097047DB
:1000AC00012303707047000010B5012001F049FCDA
:1000BC000121322001F068FCFF22064C104611464B
:1000CC0001F04FFC204600F087F82046BDE81040B8
:1000DC0000F0B8B8780000202DE9F341182564230E
:1000EC00002445430646B5FBF3F52746DFF8588058
:1000FC00A542A1B221DB212E0ED800237F2240463F
:10010C00009701F04FF90134182CF1D10E4802B0D0
:10011C00BDE8F04100F096B8422E06D83F237F226E
:10012C004046009701F03EF9EDE77F230022404660
:10013C00CDE9007701F061F9E5E7002340461A4666
:10014C00009701F02FF9DEE77800002010B50024AD
:10015C00E0B2FFF7C1FF0134322001F0EFFB642C59
:10016C00F6D141F28830BDE8104001F0E7BB000049
:10017C00002210B5084B01201A609A809A71A2F5E2
:10018C0080329A6001F0B6FABDE8104002230D22CD
:10019C001821024800F045B86C00002078000020BF
:1001AC0038B50446C0680D4608B101F037FBA37999
:1001BC00062B0CBF04200320684380B2A08001F002
:1001CC0025FBE06028B10021A28802F01DF86580B3
:1001DC0038BDA0806080FBE710B504460121C079D2
:1001EC0001F084FF0021E07901F091FF01232370DD
:1001FC0010BD38B5037805460C461BB10021C079FB
:10020C0001F074FF2B78EC7153B1A4B2204601219C
:10021C0001F06CFF2046BDE83840002101F077BFAB
:10022C0038BD70B50025044616468371C0E90355E8
:10023C0005700572FFF7B4FF20463146FFF7D9FF72
:10024C00204670BDC368002B00F04184F0B5837963
:10025C000446023BDBB2042B8CBF3225284A87B004
:10026C0098BF52F8235001F033F92369C01AA84201
:10027C00F9D372B6A388A579ADF80A30BDF80A3067
:10028C00022DE1689BB200F06E82072D00F06B82AC
:10029C00062D00F01D84052D00F0A183082D00F023
:1002AC009E83002D40F04F85002B00F092834FF47D
:1002BC000006144A0496BDF80A300331033B9BB286
:1002CC00ADF80A3011F8033CDBB28DF8073011F8A9
:1002DC00023CDBB28DF8063011F8013CDBB28DF834
:1002EC0008309DF807709DF806309DF808001B0239
:1002FC0043EA0743034303938DF805501BE100BF0A
:10030C0060230A088C000020004600BF00BF00BF1D
:10031C0000BF00BF00BF00BF00BF00BF00BF00BFD9
:10032C0000BF00BF00BF00BF00BF00BF00BF00BFC9
:10033C0000BF00BF00BF00BF00BF00BF00BF00BFB9
:10034C0000BF00BF00BF00BF00BF00BF00BF00BFA9
:10035C0000BF00BF00BF00BF00BF00BF00BF00BF99
:10036C0000BF00BF00BF00BF00BF00BF00BF00BF89
:10037C0000BF00BF00BF00BF00BF00BF00BF00BF79
:10038C0000BF00BF00BF00BF00BF00BF00BF00BF69
:10039C0000BF00BF00BF00BF00BF00BF00BF00BF59
:1003AC0000BF00BF00BF00BF00BF00BF00BF00BF49
:1003BC0000BF00BF00BF00BF00BF00BF00BF00BF39
:1003CC0000BF00BF00BF00BF00BF00BF00BF00BF29
:1003DC0000BF00BF00BF00BF00BF00BF00BF00BF19
:1003EC0000BF00BF00BF00BF00BF00BF00BF00BF09
:1003FC0000BF00BF00BF00BF00BF00BF00BF00BFF9
:10040C0000BF00BF00BF00BF00BF00BF00BF00BFE8
:10041C00E3791068C3EBC30300EB8307BF8850F884
:10042C0023305F83004600BF00BF00BF00BF00BF8A
:10043C0000BF00BF00BF00BF00BF00BF00BF00BFB8
:10044C0000BF00BF00BF00BF00BF00BF00BF00BFA8
:10045C0000BF00BF00BF00BF00BF00BF00BF00BF98
:10046C0000BF00BF00BF00BF00BF00BF00BF00BF88
:10047C0000BF00BF00BF00BF00BF00BF00BF00BF78
:10048C0000BF00BF00BF00BF00BF00BF00BF00BF68
:10049C0000BF00BF00BF00BF00BF00BF00BF00BF58
:1004AC0000BF00BF00BF00BF00BF00BF00BF00BF48
:1004BC0000BF00BF00BF00BF00BF00BF00BF00BF38
:1004CC0000BF00BF00BF00BF00BF00BF00BF00BF28
:1004DC0000BF00BF00BF00BF00BF00BF00BF00BF18
:1004EC0000BF00BF00BF00BF00BF00BF00BF00BF08
:1004FC0000BF00BF00BF00BF00BF00BF00BF00BFF8
:10050C0000BF00BF00BF00BF00BF00BF00BF00BFE7
:10051C0000BF00BF00BF00BF00BF00BF00BF049BF7
:10052C005B0804939DF805300133DBB2172B8DF873
:10053C00053000F22787E3791068C3EBC30300EBA7
:10054C008307BF8850F823301F830398049B1842FD
:10055C007FF4DAAE004600BF00BF00BF00BF00BF93
:10056C0000BF00BF00BF00BF00BF00BF00BF00BF87
:10057C0000BF00BF00BF00BF00BF00BF00BF00BF77
:10058C0000BF00BF00BF00BF00BF00BF00BF00BF67
:10059C0000BF00BF00BF00BF00BF00BF00BF00BF57
:1005AC0000BF00BF00BFE3791068C3EBC30300EBCF
:1005BC008307BF8850F823305F83004600BF00BF1D
:1005CC0000BF00BF00BF00BF00BF00BF00BF00BF27
:1005DC0000BF00BF00BF00BF00BF00BF00BF00BF17
:1005EC0000BF00BF00BF00BF00BF00BF00BF00BF07
:1005FC0000BF00BF00BF00BF00BF00BF00BF00BFF7
:10060C0000BF00BF00BF00BF00BF00BF00BF00BFE6
:10061C0000BF00BF00BF00BF00BF00BF00BF00BFD6
:10062C0000BF00BF00BF00BF00BF00BF00BF00BFC6
:10063C0000BF00BF00BF00BF00BF00BF00BF00BFB6
:10064C0000BF00BF00BF00BF00BF00BF00BF00BFA6
:10065C0000BF00BF00BF00BF00BF00BF00BF00BF96
:10066C0000BF00BF00BF00BF00BF00BF00BF00BF86
:10067C0000BF00BF00BF00BF00BF00BF00BF00BF76
:10068C0000BF00BF00BF00BF00BF00BF00BF00BF66
:10069C0000BF00BF00BF00BF00BF00BF00BF00BF56
:1006AC0000BF00BF00BF00BF00BF00BF00BF00BF46
:1006BC0000BF00BF00BF00BF00BF00BF00BF00BF36
:1006CC0000BF00BF00BF00BF00BF00BF00BF00BF26
:1006DC0000BF00BF00BF00BF00BF00BF00BF00BF16
:1006EC0000BF00BF00BF00BF00BF00BF00BF00BF06
:1006FC0000BF00BF00BF00BF00BF00BF00BF00BFF6
:10070C0000BF00BF00BF00BF00BF00BF00BF00BFE5
:10071C0000BF00BF00BF00BF00BF00BF00BF00BFD5
:10072C0000BF00BF00BF00BF00BF00BF00BF00BFC5
:10073C0000BF00BF00BF00BF00BF00BF00BF00BFB5
:10074C0000BF00BF00BF00BF00BF00BF00BF00BFA5
:10075C0000BF00BF00BF00BF00BF00BF00BF00BF95
:10076C0000BF00BFDBE6002B00F033814FF4000527
:10077C000026134A0495BDF80A300331033B9BB2A3
:10078C00ADF80A3011F8033CDBB28DF8063011F8E5
:10079C00023CDBB28DF8073011F8013CDBB28DF86E
:1007AC0008309DF806709DF807309DF808001B0274
:1007BC0043EA0743034303938DF8056080E000BFD1
:1007CC008C000020004600BF00BF00BF00BF00BF70
:1007DC0000BF00BF00BF00BF00BF00BF00BF00BF15
:1007EC0000BF00BF00BF00BF00BF00BF00BF00BF05
:1007FC0000BF00BF00BF00BF00BF00BF00BF00BFF5
:10080C0000BF00BF00BF00BF00BF00BF00BF00BFE4
:10081C0000BF00BF00BF00BF00BF00BF00BF00BFD4
:10082C0000BF00BF00BF00BF00BF00BF00BF00BFC4
:10083C0000BF00BF00BF00BF00BF00BF00BF00BFB4
:10084C0000BF00BF00BF00BF00BF00BF00BF00BFA4
:10085C0000BF00BF00BF00BF00BF00BF00BFE379F7
:10086C001068C3EBC30300EB8307BF8850F8233039
:10087C005F83004600BF00BF00BF00BF00BF00BFCA
:10088C0000BF00BF00BF00BF00BF00BF00BF00BF64
:10089C0000BF00BF00BF00BF00BF00BF00BF00BF54
:1008AC0000BF00BF00BF00BF049B5B0804939DF812
:1008BC0005300133DBB2172B8DF8053000F2838045
:1008CC00E3791068C3EBC30300EB8307BF8850F8D0
:1008DC0023301F830398049B18427FF473AF0046A8
:1008EC0000BF00BF00BF00BF00BF00BF00BF00BF04
:1008FC0000BF00BF00BF00BF00BF00BF00BF00BFF4
:10090C0000BF00BF00BFE3791068C3EBC30300EB6B
:10091C008307BF8850F823305F83004600BF00BFB9
:10092C0000BF00BF00BF00BF00BF00BF00BF00BFC3
:10093C0000BF00BF00BF00BF00BF00BF00BF00BFB3
:10094C0000BF00BF00BF00BF00BF00BF00BF00BFA3
:10095C0000BF00BF00BF00BF00BF00BF00BF00BF93
:10096C0000BF00BF00BF00BF00BF00BF00BF00BF83
:10097C0000BF00BF00BF00BF00BF00BF00BF00BF73
:10098C0000BF00BF00BF00BF00BF00BF00BF00BF63
:10099C0000BF00BF00BF00BF00BF00BF00BF00BF53
:1009AC0000BF00BF00BF00BF00BF00BF00BF00BF43
:1009BC0000BF00BF00BF00BF00BF00BF00BF00BF33
:1009CC0000BF00BF70E7BDF80A309BB2002B7FF46C
:1009DC00D1AE62B600F07CFD206107B0F0BD002BFB
:1009EC00F7D04FF4000E0026544B1868544BCDF83A
:1009FC0010E0BDF80A200331033A92B2ADF80A2098
:100A0C0011F8032CD2B28DF8062011F8022CD2B2B8
:100A1C008DF8072011F8012CD2B28DF808209DF822
:100A2C0006C09DF807209DF80870120242EA0C429D
:100A3C003A4303928DF80560E2795D68C2EBC2021D
:100A4C0000EB8207BF8850F8222005951783039F7F
:100A5C00049A174225D05A68059FD21B4F2AFAD9FF
:100A6C00E279C2EBC20200EB8207BF8850F8222069
:100A7C0057835A6805925A68059FD21B072AFAD9E0
:100A8C00049A520804929DF805200132D2B2172A1A
:100A9C008DF80520D0D9BDF80A2092B2002AA6D133
:100AAC0097E75A68059FD21B182AFAD9E279C2EB4C
:100ABC00C20200EB8207BF8850F8222057835A6885
:100ACC0005925A68059FD21B452AFAD9D8E7704778
:100ADC00002B3FF47EAF4FF000450026174A0495DB
:100AEC00BDF80A300431043B9BB2ADF80A3011F862
:100AFC00043CDBB28DF8073011F8033CDBB28DF807
:100B0C00063011F8023CDBB28DF8083011F8013CCC
:100B1C00DBB28DF809309DF807C09DF806309DF8C2
:100B2C0008001B049DF8097043EA0C633B4343EA3D
:100B3C00002303938DF805607FE000BF8C0000203C
:100B4C00001000E0004600BF00BF00BF00BF00BFA8
:100B5C0000BF00BF00BF00BF00BF00BF00BF00BF91
:100B6C0000BF00BF00BF00BF00BF00BF00BF00BF81
:100B7C0000BF00BF00BF00BF00BF00BF00BF00BF71
:100B8C0000BF00BF00BF00BF00BF00BF00BF00BF61
:100B9C0000BF00BF00BF00BF00BF00BF00BF00BF51
:100BAC0000BF00BF00BF00BF00BF00BF00BF00BF41
:100BBC0000BFE3791068C3EBC30300EB8307BF8866
:100BCC0050F823305F83004600BF00BF00BF00BF5A
:100BDC0000BF00BF00BF00BF00BF00BF00BF00BF11
:100BEC0000BF00BF00BF00BF00BF00BF00BF00BF01
:100BFC0000BF00BF00BF00BF00BF00BF00BF00BFF1
:100C0C0000BF00BF00BF00BF00BF00BF00BF00BFE0
:100C1C0000BF00BF00BF00BF00BF00BF00BF00BFD0
:100C2C0000BF00BF049B5B0804939DF805300133A3
:100C3C00DBB21F2B8DF805307ED8E3791068C3EB3F
:100C4C00C30300EB8307BF8850F823301F8303983E
:100C5C00049B18427FF476AF004600BF00BF00BF74
:100C6C0000BF00BF00BF00BF00BF00BF00BF00BF80
:100C7C0000BF00BF00BF00BF00BF00BF00BF00BF70
:100C8C00E3791068C3EBC30300EB8307BF8850F80C
:100C9C0023305F83004600BF00BF00BF00BF00BF12
:100CAC0000BF00BF00BF00BF00BF00BF00BF00BF40
:100CBC0000BF00BF00BF00BF00BF00BF00BF00BF30
:100CCC0000BF00BF00BF00BF00BF00BF00BF00BF20
:100CDC0000BF00BF00BF00BF00BF00BF00BF00BF10
:100CEC0000BF00BF00BF00BF00BF00BF00BF00BF00
:100CFC0000BF00BF00BF00BF00BF00BF00BF00BFF0
:100D0C0000BF00BF00BF00BF00BF00BF00BF00BFDF
:100D1C0000BF00BF00BF00BF00BF00BF00BF00BFCF
:100D2C0000BF00BF00BF00BF00BF00BF00BF00BFBF
:100D3C0000BF00BF00BF75E7BDF80A309BB2002BA7
:100D4C007FF4CDAE45E6032D00F02B81002B3FF454
:100D5C0040AE4FF400050026174A0495BDF80A3042
:100D6C00E079033B9BB2ADF80A300B781768DBB225
:100D7C008DF807304B78C0EBC000DBB28DF8083033
:100D8C008B7807EB800CDBB28DF806309DF807E012
:100D9C009DF80830BCF804C01B0243EA0E439DF8D2
:100DAC0006E057F8200043EA0E03039303318DF855
:100DBC000560A0F81AC07CE08C000020049B5B0846
:100DCC000493004600BF00BF00BF00BF00BF00BFC0
:100DDC0000BF00BF00BF00BF00BF00BF00BF00BF0F
:100DEC0000BF00BF00BF00BF00BF00BF00BF00BFFF
:100DFC0000BF00BF00BF00BF00BF00BF00BF00BFEF
:100E0C0000BF00BF00BF00BF00BF00BF00BF00BFDE
:100E1C0000BF00BF00BF00BF00BF00BF00BF00BFCE
:100E2C0000BF00BF00BF00BF00BF00BF00BF00BFBE
:100E3C0000BF00BF00BF00BF00BF00BF00BF00BFAE
:100E4C0000BF00BF00BF00BFE07917689DF80530F8
:100E5C00C0EBC00007EB800CBCF804C057F82000B6
:100E6C000133DBB28DF80530A0F818C0004600BF86
:100E7C0000BF00BF00BF00BF00BF00BF00BF00BF6E
:100E8C0000BF00BF00BF00BF00BF00BF00BF00BF5E
:100E9C0000BF00BF00BF9DF80530182B7AD0E37956
:100EAC001068C3EBC30300EB8307BF8850F82330F3
:100EBC005F830398049B184280D1004600BF00BF9B
:100ECC0000BF00BF00BF00BF00BF00BF00BF00BF1E
:100EDC0000BF00BF00BF00BF00BF00BFE3791068B8
:100EEC00C3EBC30300EB8307BF8850F823301F8389
:100EFC009DF805300133DBB28DF80530049B5B089F
:100F0C000493004600BF00BF00BF00BF00BF00BF7E
:100F1C0000BF00BF00BF00BF00BF00BF00BF00BFCD
:100F2C0000BF00BF00BF00BF00BF00BF00BF00BFBD
:100F3C0000BF00BF00BF00BF00BF00BF00BF00BFAD
:100F4C0000BF00BF00BF00BF00BF00BF00BF00BF9D
:100F5C0000BF00BF00BF00BF00BF00BF00BF00BF8D
:100F6C0000BF00BF00BF00BF00BF00BF00BF00BF7D
:100F7C0000BF00BF00BF00BF00BF00BF00BF00BF6D
:100F8C0000BF00BF00BF00BF00BF00BF9DF8053011
:100F9C00182B84D1BDF80A309BB2002B7FF4DDAE48
:100FAC0017E5002B3FF415AD4FF400050026134A4E
:100FBC000495BDF80A300331033B9BB2ADF80A30FF
:100FCC0011F8033CDBB28DF8073011F8023CDBB2B0
:100FDC008DF8063011F8013CDBB28DF808309DF825
:100FEC0007709DF806309DF808001B0243EA074382
:100FFC00034303938DF80560E1E000BF8C000020F3
:10100C00004600BF00BF00BF00BF00BF00BF00BF55
:10101C0000BF00BF00BF00BF00BF00BF00BF00BFCC
:10102C0000BF00BF00BF00BF00BF00BF00BF00BFBC
:10103C0000BF00BF00BF00BF00BF00BF00BF00BFAC
:10104C0000BF00BF00BF00BF00BF00BF00BF00BF9C
:10105C0000BF00BF00BF00BF00BF00BF00BF00BF8C
:10106C0000BF00BF00BF00BF00BF00BF00BF00BF7C
:10107C0000BF00BF00BF00BF00BF00BF00BF00BF6C
:10108C0000BF00BF00BF00BF00BF00BF00BF00BF5C
:10109C0000BF00BF00BF00BF00BF00BF00BF00BF4C
:1010AC0000BF00BF00BF00BF00BF00BF00BF00BF3C
:1010BC0000BF00BF00BF00BF00BF00BF00BF00BF2C
:1010CC0000BF00BF00BF00BF00BF00BF00BF00BF1C
:1010DC0000BF00BF00BF00BF00BF00BF00BF00BF0C
:1010EC0000BF00BF00BF00BF00BF00BF00BF00BFFC
:1010FC0000BF00BF00BF00BF00BF00BF00BF00BFEC
:10110C0000BF00BF00BF00BF00BF00BF00BF00BFDB
:10111C0000BF00BF00BF00BF00BF00BF00BF00BFCB
:10112C0000BFE3791068C3EBC30300EB8307BF88F0
:10113C0050F823305F83004600BF00BF00BF00BFE4
:10114C0000BF00BF00BF00BF00BF00BF00BF00BF9B
:10115C0000BF00BF00BF00BF00BF00BF00BF00BF8B
:10116C0000BF00BF00BF00BF00BF00BF00BF00BF7B
:10117C0000BF00BF00BF00BF00BF00BF00BF00BF6B
:10118C0000BF00BF00BF00BF00BF00BF00BF00BF5B
:10119C0000BF00BF00BF00BF00BF00BF00BF00BF4B
:1011AC0000BF00BF00BF049B5B0804939DF8053093
:1011BC000133DBB2172B8DF8053000F2EB80E379AD
:1011CC001068C3EBC30300EB8307BF8850F82330D0
:1011DC001F830398049B18427FF412AF004600BF94
:1011EC0000BF00BF00BF00BF00BF00BF00BF00BFFB
:1011FC0000BF00BF00BF00BF00BF00BF00BF00BFEB
:10120C0000BF00BF00BF00BF00BF00BF00BF00BFDA
:10121C0000BF00BF00BF00BF00BF00BF00BF00BFCA
:10122C0000BF00BF00BF00BF00BF00BF00BF00BFBA
:10123C0000BF00BF00BF00BF00BF00BF00BF00BFAA
:10124C0000BF00BF00BF00BF00BF00BF00BF00BF9A
:10125C0000BF00BF00BF00BF00BF00BF00BFE379ED
:10126C001068C3EBC30300EB8307BF8850F823302F
:10127C005F83004600BF00BF00BF00BF00BF00BFC0
:10128C0000BF00BF00BF00BF00BF00BF00BF00BF5A
:10129C0000BF00BF00BF00BF00BF00BF00BF00BF4A
:1012AC0000BF00BF00BF00BF00BF00BF00BF00BF3A
:1012BC0000BF00BF00BF00BF00BF00BF00BF00BF2A
:1012CC0000BF00BF00BF00BF00BF00BF00BF00BF1A
:1012DC0000BF00BF00BF00BF00BF00BF00BF00BF0A
:1012EC0000BF00BF00BF00BF00BF00BF00BF00BFFA
:1012FC0000BF00BF00BF00BF00BF00BF00BF00BFEA
:10130C0000BF00BF00BF00BF00BF00BF00BF00BFD9
:10131C0000BF00BF00BF00BF00BF00BF00BF00BFC9
:10132C0000BF00BF00BF00BF00BF00BF00BF00BFB9
:10133C0000BF00BF00BF00BF00BF00BF00BF00BFA9
:10134C0000BF00BF00BF00BF00BF00BF00BF00BF99
:10135C0000BF00BF00BF00BF00BF00BF00BF00BF89
:10136C0000BF00BF00BF00BF00BF00BF00BF00BF79
:10137C0000BF00BF00BF00BF00BF00BF00BF00BF69
:10138C0000BF10E7BDF80A309BB2002B7EF492AF81
:10139C00FFF71FBBBDF80A309BB2002B7FF408AEE1
:1013AC00FFF717BB70B544889DF810508C4218D9C4
:1013BC00047A2CB1624363436C43120A1B0A250A5C
:1013CC00C668807901EB410102387418062810D8E0
:1013DC00DFE800F0040F08040F040400735462707B
:1013EC00A57070BDFE2A28BFFE2272546570A370D2
:1013FC00F7E772546370A570F3E7F0B545889DF874
:10140C0014408D429DF818C01FD9057A4DB16A431E
:10141C006B436C4305FB0CF5120A1B0A240A4FEABA
:10142C00152C8779C668062F0CBF04200320414376
:10143C00023F7018062F16D8DFE807F004150804D1
:10144C000F040400735442708470F0BDFE2A28BF50
:10145C00FE22725444708370F7E7725443708470A8
:10146C0080F803C0F1E7725443708470EDE700001C
:10147C0008B500F005F8014B186008BD8C00002081
:10148C0008B5024B1B681B68019308BDB001060828
:10149C0008B5024B1B689B68019308BDB001060898
:1014AC0008B5024B1B68DB68019308BDB001060848
:1014BC0008B5024B1B681B69019308BDB0010608F7
:1014CC0008B5024B1B685B68019308BD9C010608BC
:1014DC0008B5024B1B681B69019308BD9C010608EB
:1014EC0008B5024B1B685B69019308BD9C0106089B
:1014FC0008B5024B1B685B6C019308BDD001060854
:10150C0008B5024B1B689B6C019308BDD001060803
:10151C0008B5024B1B689B69019308BDC401060802
:10152C0008B5024B1B685B6A019308BDC401060831
:10153C0008B5024B1B689B6A019308BDC4010608E1
:10154C0008B5024B1B68DB6A019308BDC401060891
:10155C0008B5024B1B681B6B019308BDC401060840
:10156C0008B5024B1B685B6B019308BDC4010608F0
:10157C0008B5024B1B689B6B019308BDC4010608A0
:10158C0008B5024B1B681B6C019308BDC40106080F
:10159C0008B5024B1B681B6E019308BDAC01060815
:1015AC0008B5024B1B685B6E019308BDAC010608C5
:1015BC0008B5024B1B689B6E019308BDAC01060875
:1015CC0008B5024B1B68DB6E019308BDAC01060825
:1015DC0008B5024B1B681B6F019308BDAC010608D4
:1015EC0008B5024B1B685B6F019308BDAC01060884
:1015FC0008B5034B1B68D3F88030019308BD00007D
:10160C00AC01060808B5024B1B68DB69019308BDE9
:10161C00B401060808B5024B1B681B6A019308BD90
:10162C00B401060808B5024B1B681B68019308BD82
:10163C00D801060808B5024B1B681B69019308BD4D
:10164C00D801060808B5024B1B685B69019308BDFD
:10165C00D801060808B5024B1B689B69019308BDAD
:10166C00D801060808B5024B1B68DB69019308BD5D
:10167C00D801060808B5024B1B681B6A019308BD0C
:10168C00D801060808B5024B1B689B6C019308BD7A
:10169C00C001060808B5024B1B685B68019308BDC6
:1016AC00A801020808B5024B1B689B68019308BD92
:1016BC00A801020808B5024B1B68DB68019308BD42
:1016CC00A801020808B5024B1B681B69019308BDF1
:1016DC00A801020808B5024B1B689B69019308BD61
:1016EC00A801020808B5024B1B68DB69019308BD11
:1016FC00A801020808B5024B1B685B68019308BD82
:10170C00A401060808B5024B1B685B69019308BD70
:10171C00A401060808B5034B1B68D3F8903001935D
:10172C0008BD0000A401060808B5034B1B68D3F8DC
:10173C009C30019308BD0000A401060808B5024BBB
:10174C001B685B68019308BDC801060808B5024B0D
:10175C001B689B68019308BDC801060808B5024BBD
:10176C001B68DB68019308BDC801060808B5024B6D
:10177C001B681B69019308BDC801060808B5024B1C
:10178C001B685B69019308BDC801060808B5024BCC
:10179C001B689B69019308BDC801060808B5024B7C
:1017AC001B68DB69019308BDC801060808B5024B2C
:1017BC001B681B6A019308BDC801060808B5024BDB
:1017CC001B681B6B019308BDC801060808B5024BCA
:1017DC001B685B6B019308BDC801060808B5024B7A
:1017EC001B681B6C019308BDC801060808B5024BA9
:1017FC001B685B6C019308BDC801060808B5024B59
:10180C001B68DB6B019308BDCC01060808B5024BC5
:10181C001B681B68019308BDA001060808B5024BA4
:10182C001B685B68019308BDA001060808B5024B54
:10183C001B685B6C019308BDA001060870B50026FF
:10184C0004460D4640F8086FFFF752FE28462570F7
:10185C00FFF7D8FE2046666070BD00000222002013
:10186C00044B1A60044B054A1860988098719A6072
:10187C00FFF740BF9C000020900000200000FFFFFD
:10188C00F8B506460D4600248F18BD420CD03368BF
:10189C0030469B6815F8011B9847031E01DB1C445E
:1018AC00F3E7002C08BF1C462046F8BD70B5054672
:1018BC000C46084649B100F0D3FC2B680246214681
:1018CC002846BDE87040DB68184770BD03689B680C
:1018DC0018470023012A98BF0A2230B58BB00C465A
:1018EC008DF8243009A92546B4FBF2F404FB1253FD
:1018FC00DBB2092B94BF30333733DBB2AA4201F889
:10190C00013DF0D9FFF7D2FF0BB030BD002340688A
:10191C001A461946FFF732BF014B024A1A6070474C
:10192C00A000002074230A08024B1A68024B1A60AC
:10193C00704700BF00000020A40000200021FFF72A
:10194C00E1BE10B50446FFF7C5FE844208D01CB1B9
:10195C00BDE81040FFF7A6BEBDE81040FFF7AABED9
:10196C0010BD70B505460E461446FFF7B3FE50B1D8
:10197C0044EA062444EA0540FFF78CFEBDE87040BB
:10198C00E720FFF7AFBE70BD10B50C46FFF79AFE0F
:10199C00FFF7A0FE28B124B1BDE81040E720FFF707
:1019AC00A1BE10BD0022014B9A607047A800002018
:1019BC00014B1860704700BF0400002008B5134BA2
:1019CC0043B100F063F903681B699847002801DDF7
:1019DC00AFF300800E4B43B100F0FAF903681B69BA
:1019EC009847002801DDAFF300800A4B0BB1AFF331
:1019FC000080094B43B100F075F903681B699847E7
:101A0C00002801DDAFF3008008BD00BF000000001E
:101A1C0000000000000000000000000008B5FFF707
:101A2C00CDFFFFF75DFD014B186008BD30010020B4
:101A3C000548064A08B5121A054900F0D7FB054BB4
:101A4C00054A1A6008BD00BF004002400440024035
:101A5C00D0240A08004002401E1C279A002307B518
:101A6C001A466FF077010093FFF75EFE03B05DF846
:101A7C0004FB000007B543880A2B08D0502B0BD170
:101A8C00094B1B684BB103B05DF804EB1847FFF72B
:101A9C00E5FF03B05DF804FB00231A466FF07701F5
:101AAC000093FFF741FEF4E7BC000020002110B5C5
:101ABC001148FFF7BBFE114B1A68114B9A420CBF31
:101ACC00012200220F4B1A7001D0FFF7B1FFFFF774
:101ADC00F7FC044600F0A0FB0B4B13B12046AFF310
:101AEC00008000210848FFF789FEBDE81040002166
:101AFC000648FFF70FBE00BFBD190A0800400240A0
:101B0C001E1C279AB800002000000000811A0A0849
:101B1C00704710B50446182100F05EFB204610BD3E
:101B2C00F8B50E46002400F10807051D17F8011D35
:101B3C000A223046FFF7CDFEAF42044401D12046C5
:101B4C00F8BD002CF2D02E213046FFF7BFFE044426
:101B5C00ECE7000010B50446044B1122002140F8BC
:101B6C00043B00F051FB204610BD00BF9C230A082B
:101B7C000346074A10B543F8042B01F1100251F843
:101B8C00044B914243F8044BF9D10A781A7010BDFA
:101B9C009C230A08024AC0E90021042202757047FE
:101BAC009C230A0810B59DF8084044EA032404233A
:101BBC0044EA024444EA01644460037510BD000029
:101BCC0037B5044D05609DF818500095FFF7EAFFF6
:101BDC0003B030BD9C230A084174704770477047AE
:101BEC0008B50021007CFFF735FD40EAE07008BD28
:101BFC0008B50121007CFFF72DFD40EAE07008BD1F
:101C0C0008B5007CFFF71EFD20EAE07008BD08B5A2
:101C1C00007CFFF70FFD20EAE07008BD38B50446E4
:101C2C00007C0D46FFF70EFD002801DC607C28B11E
:101C3C002946207CFFF716FD20EAE07038BD007CB9
:101C4C00FFF718BD10B50446142100F0C5FA204664
:101C5C0010BD704710B54FF47A7304460846002146
:101C6C00C4E90113044B20742360012311466374EF
:101C7C00FFF7D8FC204610BDB0230A0810B5044667
:101C8C001422002100F0C0FA204610BD30B50E4DD4
:101C9C0087B001A8FFF7F2FF2978BFF35B8F11F033
:101CAC0001040ED12846FEF7F6F950B1214601AADF
:101CBC000648FFF7CFFF2846FEF7F2F9044800F07C
:101CCC008FFA024807B030BDC0000020C8000020C9
:101CDC00E91B0A0810B504461422002100F094FAFE
:101CEC00204610BD10B50E4C86B001A8FFF7F2FFD0
:101CFC002378BFF35B8FDB070ED42046FEF7CBF9BE
:101D0C0050B1012101AA0748FFF7A4FF2046FEF7B6
:101D1C00C7F9054800F064FA024806B010BD00BFD0
:101D2C00C4000020DC0000205F1C0A0870474174CE
:101D3C007047704708B5007CFFF722FC20EAE07082
:101D4C0008BD08B5007CFFF7F3FB20EAE07008BD86
:101D5C0008B5007CFFF7FCFB40EAE07008BD08B555
:101D6C00007CFFF7EDFB40EAE07008BD007CFFF75C
:101D7C00F7BB70B5467C04460D462EB12946207C37
:101D8C00BDE87040FFF7CCBB007CFFF7F9FB0028E7
:101D9C00F4DC304670BD10B50446142100F01CFA7A
:101DAC00204610BD4FF0000C10B5044608461146F5
:101DBC004FF47A72C4E901C2044A207422600122F1
:101DCC0062741A46FFF7A4FB204610BDE0230A08F4
:101DDC00F8B5194C26684EB98420FEF756F905461D
:101DEC0018B18422314600F00FFA2560134D2F688C
:101DFC004FB98420FEF749F9064618B184223946BA
:101E0C0000F002FA2E600E4F3978BFF35B8F11F0A1
:101E1C0001060FD13846FEF73EF958B131462B6812
:101E2C0022680848FFF7BEFF3846FEF739F9064826
:101E3C0000F0D6F90348F8BDF4000020F8000020AB
:101E4C00F0000020FC0000203F1D0A087047F8B588
:101E5C00064615460C468F18BC4206D033683046F1
:101E6C009B6814F8011B9847F6E72846F8BD00223A
:101E7C00007CFFF78DBB0021007CFFF791BB00219C
:101E8C00007CFFF795BB0021007CFFF799BB00217C
:101E9C00007CFFF79DBB10B50446142100F09CF9A3
:101EAC00204610BD10B54FF47A7304460846002145
:101EBC00C4E90113034B114623602074FFF798FB10
:101ECC00204610BD10240A08002240681146FFF776
:101EDC004DBCF0B5154689B011220E4604460021C2
:101EEC0003A800F091F9284600F0BAF9002781B256
:101EFC0073682846009703AAFFF7C4FB30B1394634
:101F0C002046FFF747FE204609B0F0BD204603A946
:101F1C00FFF72EFEF7E7002240681146FFF746BC9C
:101F2C00002240681146FFF751BC00224068FFF7C1
:101F3C0045BC0022406881F00101FFF72FBC002353
:101F4C0040681A461946FFF721BC0022406811462A
:101F5C00FFF7FCBB002202214068FFF7FFBB002308
:101F6C0040681A46FFF7EABB0422024B5A60024A49
:101F7C001A6070471001002038240A0800234068BA
:101F8C001A46FFF7DBBB002202214068FFF7E6BBD5
:101F9C00002240681146FFF7D9BB00224068114669
:101FAC00FFF7E4BB002340681A461946FFF7E6BB6F
:101FBC00002340681A461946FFF7E8BB0021406829
:101FCC00FFF70CBC00214068FFF710BC00224068F2
:101FDC0081F00101FFF7E2BB00224068FFF7EEBB86
:101FEC00002240681146FFF7F1BB00224068114601
:101FFC00FFF7DCBB70B515468EB0044608A8FFF79A
:10200C00A9FD1122002103A800F0FEF800262846A5
:10201C0000F026F90A4B009681B25B68284603AAA9
:10202C00FFF730FB30B131462046FFF7B3FD2046B9
:10203C000EB070BD204603A9FFF79AFDF7E700BF6D
:10204C0010010020024B034A1A6000225A607047AC
:10205C001801002074240A08024B986808B1FFF795
:10206C004FBA704724010020172870B5044601D9D7
:10207C00002070BDA0F10D03022B0BD9012824D830
:10208C0000F086F80021007CFFF7AAFA80F001002E
:10209C00C0B2EEE7124E3178BFF35B8F11F0010541
:1020AC000DD13046FDF7F7FF48B129460D48FFF733
:1020BC00C5FB3046FDF7F4FF0B4800F091F8094BD7
:1020CC001878FFF7A7FA0028D2D1123C012C05D8BA
:1020DC00FFF77EFE007CFFF74BFAD7E70120C8E73D
:1020EC00200100202401002065200A08172838B59B
:1020FC0004460D460AD8FF2908D0FFF7B5FF28B1D2
:10210C0029462046BDE83840FFF7C2B938BD38B57E
:10211C0004460D46FFF7C4F9FF2810D0062804D852
:10212C004D2323FA00F0C30709D42046FFF79CFF88
:10213C0028B129462046BDE83840FFF7B9B938BD6B
:10214C00002307B51A46194600930348FFF738FDDC
:10215C0003B05DF804FB00BF3401002070470000A1
:10216C00002370B5202543801423084E04460380B9
:10217C00314685600561284600F030F831466060D4
:10218C00284600F02BF8E060204670BDA8240A0811
:10219C0030B50E4D87B02978BFF35B8F11F0010479
:1021AC0011D12846FDF777FF68B101A8FFF7D8FFDA
:1021BC00214601AA0648FFF775FE2846FDF770FF79
:1021CC00044800F00DF8024807B030BD4C01002067
:1021DC005001002069210A08FDF75BBFFDF757BFCE
:1021EC00002301461A46184600F042B80A449142B0
:1021FC0000F1FF3300D1704710B511F8014B91423B
:10220C0003F8014FF9D110BD03460244934200D1AB
:10221C00704703F8011BF9E738B50D4B04461D68F0
:10222C00AB6B7BB91820FFF7F1FA0A4A0A4BA8638B
:10223C00C0E90023094B012283600B238381002317
:10224C00C0E904230022AB6B1C615A6138BD00BF8E
:10225C00040000200E33CDAB34126DE6ECDE05002D
:10226C00034613F8012B002AFBD1181A01387047CA
:10227C002DE9F843DFF8BC800646D8F800001F466D
:10228C000D46914600F058F8264B1C6834B9264C84
:10229C001C60264B13B11B68C4F8883063681F2B75
:1022AC0007DDD8F8000000F049F84FF0FF30BDE82A
:1022BC00F8835EB3D4F8880088B91D4B23B9D8F8DD
:1022CC00000000F03AF8F0E74FF48470FFF79EFA44
:1022DC000028F4D00023C0E94033C4F88800012260
:1022EC006368022E40F8239002FA03F200EB83019C
:1022FC00D0F8003143EA0203C0F80031C1F8807015
:10230C0002BFD0F804311A43C0F804216368D8F82E
:10231C0000005A1C0233626044F8235000F00EF89F
:10232C000020C4E7F0010020640100200000000040
:10233C0019180A08680000207047704770470000A1
:10234C001D000A085D000A0885000A0889000A08B1
:10235C00000000002C01000018000000F401000037
:10236C002C010000500000006170700025592D25D3
:10237C006D2D25645425483A254D3A2553257A0070
:10238C0061736374696D650000000000000000005B
:10239C002D1B0A081D1B0A081F1B0A080000000041
:1023AC0000000000EB1B0A08511C0A08291C0A0833
:1023BC008D180A081B1C0A08ED1B0A08FD1B0A08CD
:1023CC004B1C0A080D1C0A08E51B0A08000000003B
:1023DC0000000000391D0A08A31D0A087F1D0A0809
:1023EC008D180A084F1D0A086B1D0A085D1D0A0886
:1023FC00791D0A083B1D0A08411D0A08000000004F
:10240C0000000000591E0A08A31E0A087B1E0A08B9
:10241C005B1E0A08831E0A088B1E0A08931E0A08F4
:10242C009B1E0A0800000000000000006B1F0A0839
:10243C00611F0A08571F0A08D51E0A0819190A082D
:10244C004B1F0A08C91F0A08D11F0A083F1F0A0898
:10245C00371F0A082D1F0A08231F0A08DF1E0A0847
:10246C000000000000000000891F0A08931F0A08E2
:10247C009D1F0A08A71F0A08B11F0A08BD1F0A08DA
:10248C00C91F0A08D11F0A08D91F0A08E51F0A0824
:10249C00ED1F0A08F71F0A0801200A0800000000B7
:1024AC007D010A087D140A0869180A0825190A080A
:1024BC0035190A08B1190A08751F0A0851200A08AB
:0424CC004D210A088C
:0424D0000000000008
:1024D4008C230A080800002000000000000000000F
:1024E40000000000000000000000000000000000E8
:1024F40000000000000000000000000000000000D8
:1025040000000000000000000000000000000000C7
:1025140000000000000000000000000000000000B7
:1025240000000000000000000000000000000000A7
:0C2534000000000000000000F501002085
:10254000FFFFFFFF00000102030405060708090A58
:102550000B0C0D0E0F101112131415161718191A53
:082560001B1C1D1E1F2028009A
:04256800785634125B
:04000005080A001CC9
:00000001FF
