:02000002B0004C
:1040000000400B0048590B00000006001A00050292
:084010000401810C0000000016
:0440180010560B0033
:10401C0009480A49884208B505D0094A824202D0AB
:10402C00121A01F03DFA0748074A0021121A01F052
:10403C0045FA014808BD00BFF8E50320B4580B0051
:10404C0064E6032064E60320EDE7032070B5074E19
:10405C00074C00F06BFEA41BA4080025AC4200D159
:10406C0070BD56F8043B98470135F7E77C580B00B8
:10407C00A8580B0000F014B808B500F05DF8BDE8C6
:10408C00084000F00BBE00F0C9BC00F0CFBC0078BB
:10409C00B0FA80F0400970470123037070470000AC
:1040AC0008B5012000F0A1FD0121322000F0C0FD77
:1040BC00FF221046114600F0A8FD044800F083F8DA
:1040CC00BDE80840014800F0B7B800BF70E6032017
:1040DC002DE9F3410024DFF85C8000EB4006054637
:1040EC002746F6006423B6FBF3F6A642A1B21DDB0D
:1040FC00212D06D8009700237F22404600F048FA75
:10410C000BE0422D02D800973F23F5E7CDE900776D
:10411C007F230022404600F068FA0134182CE4D1C9
:10412C00044802B0BDE8F04100F086B800230097C7
:10413C001A46E2E770E6032010B50024E0B2FFF760
:10414C00C7FF01340A2000F04DFD642CF6D1BDE808
:10415C0010404FF47A7000F045BD000010B5094BCB
:10416C000022C3E90022A2F580329A60012000F0FF
:10417C00C9FBBDE81040044802230322182100F0BB
:10418C0049B800BF64E6032070E6032038B5044646
:10419C00C0680D4608B100F049FCA379062B0CBF92
:1041AC000420032010FB05F080B2A08000F036FC48
:1041BC00E06028B1A288002101F080F9658038BD4B
:1041CC00A0806080FBE710B504460121C07901F0A6
:1041DC00B3F8E079002101F0C0F80123237010BD81
:1041EC0037B5037805460C461BB1C079002101F0A8
:1041FC00A3F82B78EC715BB1A0B20121019001F016
:10420C009BF80198002103B0BDE8304001F0A5B83F
:10421C0003B030BD70B50025044616468371C0E965
:10422C00035505700572FFF7B1FF20463146FFF7C5
:10423C00D7FF204670BD0000C368002B00F0A4819E
:10424C002DE9F04F8379023BDBB2042B9CBFBF4AB4
:10425C0052F8234085B0054688BF322400F04AFA54
:10426C002B69C01AA042F9D3B94CAE88D4F80035EA
:10427C001BB9D4F86035002B7EDBB64CD4F8003576
:10428C0023B9D4F86035002BC0F26E81B24CD4F84F
:10429C000035002B00F04481EB79B04AB04C126829
:1042AC00190102EB0313575CAE495B78D1F8FC2083
:1042BC0042F08072C1F8FC20226803F01F0343EA2D
:1042CC00471301273A432260A988D5F80C80D4F80B
:1042DC0004909F40002944D04FF0000E72464FF0DE
:1042EC00A04118F801CB0820802663689B1A462B46
:1042FC00FBD96268D1F808351CEA060F43EA0703BC
:10430C00C1F808352FD063689B1A282BFBD9D1F83C
:10431C000C35013843EA07034FEA5606C1F80C3551
:10432C00E3D1AB880EF1010E1FFA8EFE7345D8D87F
:10433C004FF4307103FB01F163689B1A462BFBD9D8
:10434C006368A3EB09098945C0F0E4804FF49670CB
:10435C0000F0C8F9A988D5F80C80D4F8049000298D
:10436C00BAD10A46E8E763689B1A112BCFD8636869
:10437C009B1A112BF7D9CAE7D4F86435002BBFF67A
:10438C007CAFD4F86835002BBFF677AFD4F86C351A
:10439C00002BBFF672AF3601331D1846009300F0A8
:1043AC003DFB00283FF478AFAB88002B00F0ED808C
:1043BC00EA68013B12FA83F702F1FF3E002348F250
:1043CC00060248F20D011EF801CF1CF0800F0CBF45
:1043DC0093468B461CF0400F0CBF16460E461CF045
:1043EC00200F0CBF9046884603F10109CDF80880D8
:1043FC00019603F102081FFA89F9019E20F813B007
:10440C001FFA88F820F81960029E20F8186003F152
:10441C0003081CF0100F1FFA88F80CBF93468B464C
:10442C0020F818B003F104081CF0080F1FFA88F8E4
:10443C000CBF93468B4620F818B003F105081CF00E
:10444C00040F1FFA88F80CBF93468B4620F818B05F
:10445C0003F1080A03F1060807339BB21CF0020FA4
:10446C001FFA88F80CBF93468B46CDF80CA01CF0B5
:10447C00010F20F818B015BF20F8131020F81320E6
:10448C001FFA8AF3BDF80C3077459CD1591C0233C6
:10449C0089B29BB249005B004FF400474752009A27
:1044AC00C7522E4B56081F6800221423C4F804254B
:1044BC00C4F80C25C4F80835C4F81425C4F8102524
:1044CC00C4F82005C4F82465C4F82825C4F82C25A4
:1044DC00EB7907EB031C1B010121FE5C9CF80130FE
:1044EC0003F01F0343EA4613C4F86035C4F8001503
:1044FC00C4F81021A160D4F81031002BFBD000239C
:10450C004FF0FF32C4F81031C4F80035C4F8602500
:10451C0000F08CFA00F0EEF8286105B0BDE8F08FE1
:10452C00D4F86035002BBFF6B7AED4F86435002B49
:10453C00BFF6B2AED4F86835002BBFF6ADAED4F8EA
:10454C006C35002BBFF6A8AE25E700BF24560B0038
:10455C0000C00140001002400020024084E603200D
:10456C00001000E000ED00E0D4F86435002BBFF63D
:10457C008DAED4F86835002BBFF688AED4F86C3508
:10458C00002BBFF683AE06E770470423022183E7B6
:10459C0070B544889DF810508C4222D9047A44B1ED
:1045AC0012FB04F214FB03F314FB05F4120A1B0AAE
:1045BC00250AC668807901EB410102387418062877
:1045CC0010D8DFE800F0040F08040F040400735443
:1045DC006270A57005E0FE2A28BFFE227254657039
:1045EC00A37070BD72546370F3E7F0B50646408853
:1045FC009DF814409DF818C0884229D9357A65B1C8
:10460C0012FB05F215FB03F315FB04F415FB0CF57B
:10461C00120A1B0A240A4FEA152CF768B679062EE3
:10462C000CBF042003204843023E3918062E16D82E
:10463C00DFE806F0041508040F0404003B544A702C
:10464C008C7005E0FE2A28BFFE223A544C708B7009
:10465C00F0BD3A544B708C7081F803C0F8E73A54B3
:10466C004B70EDE708B500F015F8014B186008BD6C
:10467C0084E6032008B5024B1B689B68019308BDB8
:10468C006802030008B5024B1B68DB68019308BD88
:10469C006802030008B5024B1B681B68019308BD38
:1046AC002C02030008B5024B1B689B68019308BDE4
:1046BC002C02030008B5024B1B68DB68019308BD94
:1046CC002C02030008B5024B1B681B69019308BD43
:1046DC002C02030008B5024B1B685B68019308BDF4
:1046EC001802030008B5024B1B68DB68019308BD78
:1046FC001802030008B5024B1B681B69019308BD27
:10470C001802030008B5024B1B685B69019308BDD6
:10471C001802030008B5024B1B685B6C019308BDC3
:10472C004802030008B5024B1B685B69019308BD86
:10473C006402030008B5024B1B68DB68019308BDDB
:10474C003C02030008B5024B1B681B69019308BDB2
:10475C003C02030008B5024B1B685B69019308BD62
:10476C003C02030008B5024B1B689B69019308BD12
:10477C003C02030008B5024B1B68DB69019308BDC2
:10478C003C02030008B5024B1B681B6A019308BD71
:10479C003C02030008B5024B1B689B6A019308BDE1
:1047AC003C02030008B5024B1B681B6C019308BD4F
:1047BC003C02030008B5024B1B681B6A019308BD41
:1047CC002802030008B5024B1B685B6A019308BD05
:1047DC002802030008B5024B1B689B6A019308BDB5
:1047EC002802030008B5024B1B68DB6A019308BD65
:1047FC002802030008B5024B1B681B6B019308BD14
:10480C002802030008B5024B1B685B6B019308BDC3
:10481C002802030008B5024B1B681B6C019308BDF2
:10482C002802030008B5024B1B68DB69019308BD25
:10483C003002030008B5024B1B681B6A019308BDCC
:10484C003002030008B5024B1B681B68019308BDBE
:10485C004C02030008B5024B1B681B69019308BD91
:10486C004C02030008B5024B1B685B69019308BD41
:10487C004C02030008B5024B1B689B69019308BDF1
:10488C004C02030008B5024B1B68DB69019308BDA1
:10489C004C02030008B5024B1B681B6A019308BD50
:1048AC004C02030008B5024B1B685B68019308BD02
:1048BC006002030008B5024B1B689B68019308BD9E
:1048CC006002030008B5024B1B68DB68019308BD4E
:1048DC006002030008B5024B1B681B69019308BDFD
:1048EC006002030008B5024B1B689B69019308BD6D
:1048FC006002030008B5024B1B68DB69019308BD1D
:10490C006002030008B5024B1B685B68019308BD8D
:10491C002002030008B5024B1B685B69019308BDBC
:10492C002002030008B5034B1B68D3F888300193B1
:10493C0008BD00002002030008B5034B1B68D3F828
:10494C009430019308BD00002002030008B5024B0F
:10495C001B685B68019308BD4002030008B5024B5D
:10496C001B689B68019308BD4002030008B5024B0D
:10497C001B68DB68019308BD4002030008B5024BBD
:10498C001B681B69019308BD4002030008B5024B6C
:10499C001B685B69019308BD4002030008B5024B1C
:1049AC001B689B69019308BD4002030008B5024BCC
:1049BC001B68DB69019308BD4002030008B5024B7C
:1049CC001B681B6A019308BD4002030008B5024B2B
:1049DC001B681B6B019308BD4002030008B5024B1A
:1049EC001B685B6B019308BD4002030008B5024BCA
:1049FC001B681B6C019308BD4002030008B5024BF9
:104A0C001B685B6C019308BD4002030008B5024BA8
:104A1C001B68DB6B019308BD4402030008B5024B15
:104A2C001B681B68019308BD1C02030008B5024BF0
:104A3C001B685B68019308BD1C02030008B5024BA0
:104A4C001B681B6C019308BD1C02030008B5024BCC
:104A5C001B685B6C019308BD1C02030000224068BC
:104A6C001146FFF7ABBF002240681146FFF7B6BFF7
:104A7C0040680022FFF7AABF4068002281F00101C4
:104A8C00FFF794BF002340681A461946FFF786BF0C
:104A9C00002340681A461946FFF778BF0022406889
:104AAC001146FFF76BBF002240681146FFF756BF57
:104ABC00406800220221FFF759BF002340681A46C4
:104ACC00FFF744BF024B03225A60024A1A60704738
:104ADC0088E6032040560B0010B5044608462170AA
:104AEC00FFF7A0FE00236360204610BD054B022299
:104AFC001A60054B054A9A600020C3E90000FFF7D5
:104B0C0001BF00BF9CE6032090E603200000FFFFDE
:104B1C00024800230360FFF7FDBD00BFA0E60320A1
:104B2C00F8B506460D468F180024BD420CD03368EC
:104B3C0015F8011B9B6830469847031E01DB1C448B
:104B4C00F3E7002C08BF1C462046F8BD13B50446FD
:104B5C00084659B1019100F0E7FC23680199DB6824
:104B6C000246204602B0BDE81040184702B010BD06
:104B7C0003689B68184730B58BB00023012A8DF869
:104B8C00243098BF0A2209AC0D46B1FBF2F101FBAF
:104B9C00125303F0FF03092B94BF30333733DBB2CE
:104BAC00AA4204F8013DEFD92146FFF7CFFF0BB025
:104BBC0030BD002340681A461946FFF7E7BE0000D7
:104BCC00014B024A1A607047A4E6032074560B008E
:104BDC00024B1A68024B1A60704700BFF8E50320BD
:104BEC00A8E603200021FFF795BE10B50446FFF799
:104BFC0079FE844208D01CB1BDE81040FFF75ABEC4
:104C0C00BDE81040FFF75EBE10BD70B505460E4600
:104C1C001446FFF767FE50B144EA062444EA054007
:104C2C00FFF740FEBDE87040E720FFF763BE70BDA4
:104C3C0010B50C46FFF74EFEFFF754FE28B124B119
:104C4C00BDE81040E720FFF755BE10BD014B002218
:104C5C009A607047ACE60320014B1860704700BFA8
:104C6C00FCE5032008B50B4B43B100F063F9036876
:104C7C001B699847002801DDAFF30080064B43B158
:104C8C0000F0A0FB03681B699847002801DDAFF317
:104C9C00008008BD000000000000000008B5FFF710
:104CAC00E1FFFFF72FFD014B186008BD40E7032023
:104CBC000548064A064908B5121A00F0F1FB054BE7
:104CCC00054A1A6008BD00BF00F4032004F4032059
:104CDC00B0580B0000F403201E1C279A07B50023C4
:104CEC0000931A466FF07701FFF726FE03B05DF8CC
:104CFC0004FB000007B543880A2B08D0502B0BD1BE
:104D0C00094B1B684BB103B05DF804EB1847FFF778
:104D1C00E5FF03B05DF804FB002300931A466FF027
:104D2C007701FFF709FEF4E7C0E6032010B512483F
:104D3C000021FFF78BFE114B1A68114B9A42114B55
:104D4C000CBF012200221A7001D0FFF7B1FFFFF750
:104D5C00C1FC044600F0BAFB0B4B13B12046AFF379
:104D6C00008000210848FFF751FEBDE810400748BD
:104D7C000021FFF7D7BD00BF654C0B0000F40320EA
:104D8C001E1C279ABCE6032000000000014D0B00FE
:104D9C00704710B518210446FFF777F9204610BD6F
:104DAC00F0B5037D062B8DB00E4600F104074FF0D5
:104DBC00000412D000F1080515F8011D0A22304636
:104DCC00FFF7D9FEAF42044419D0002CF4D02E21A9
:104DDC003046FFF7CDFE0444EEE72F236A463946F2
:104DEC000A208DF80040FFF79DFC684600F09CFB04
:104DFC0033680246DB6869463046984704462046CD
:104E0C000DB0F0BD10B5054B0446112240F8043B23
:104E1C00002100F053FB204610BD00BF9C560B0038
:104E2C000346074A10B543F8042B01F1100251F860
:104E3C00044B43F8044B9142F9D10A781A7010BD17
:104E4C009C560B0010B59DF8084044EA032343EA36
:104E5C00024242EA016104234160037510BD000067
:104E6C0007B5064B0360CB7800938B784A780978AA
:104E7C00FFF7E8FF03B05DF804FB00BF9C560B0086
:104E8C00417470477047704708B50021007CFFF7EC
:104E9C00F1FC40EAE07008BD08B50121007CFFF789
:104EAC00E9FC40EAE07008BD08B5007CFFF7DAFCCD
:104EBC0020EAE07008BD08B5007CFFF7CBFC20EAC7
:104ECC00E07008BD13B50446007C0191FFF7CAFCE5
:104EDC000028019901DC607C20B1207CFFF7D2FC1A
:104EEC0020EAE07002B010BD007CFFF7D3BC10B517
:104EFC0014210446FFF7C9F8204610BD10B54FF435
:104F0C007A73044608460021C4E90113044B23605C
:104F1C000123207463741146FFF794FC204610BDE6
:104F2C00B0560B0010B514220446002100F0C6FA4E
:104F3C00204610BD10B50F4C88B003A8FFF7F2FF48
:104F4C002178BFF35B8F11F001010FD12046019145
:104F5C00FFF79DF8019948B103AA0748FFF7CEFF68
:104F6C002046FFF799F8054800F094FA024808B07B
:104F7C0010BD00BFC4E60320C8E60320914E0B0011
:104F8C00002240681146FFF7F9BC00224068114628
:104F9C00FFF714BD002240681146FFF71FBD4068A3
:104FAC000022FFF713BD4068002281F00101FFF7DA
:104FBC00FDBC002340681A461946FFF7EFBC0023DE
:104FCC0040681A461946FFF7E1BC002240681146BA
:104FDC00FFF7C4BC406800220221FFF7C7BC0023C6
:104FEC0040681A46FFF7B2BC084B10B5282422467D
:104FFC001846002100F062FA054B04804FF0FF3296
:10500C00426004225A60034A1A6010BDE4E6032091
:10501C00DCE60320E0560B0070474174704708B57E
:10502C00007CFFF7B7FB20EAE07008BD08B5007CF8
:10503C00FFF788FB20EAE07008BD08B5007CFFF79D
:10504C0091FB40EAE07008BD08B5007CFFF782FBDD
:10505C0040EAE07008BD007CFFF78CBB37B5457C9F
:10506C0004462DB1207C03B0BDE83040FFF762BB95
:10507C00007C0191FFF78EFB00280199F2DC284699
:10508C0003B030BD10B514210446FEF7FEFF2046D8
:10509C0010BD000010B54FF47A7304460846114653
:1050AC000022C4E90123044B2360012320746374A0
:1050BC00FFF778FB204610BD1C570B007047F8B566
:1050CC00064615460C468F18BC4206D0336814F8B9
:1050DC00011B9B6830469847F6E72846F8BD007CD4
:1050EC000022FFF767BB007C0021FFF76BBB007C45
:1050FC000021FFF76FBB007C0021FFF773BB007C26
:10510C000021FFF777BB10B514210446FEF7BDFF55
:10511C00204610BD10B54FF47A73044608460021A2
:10512C00C4E90113034B236020741146FFF772FB93
:10513C00204610BD4C570B00002340681A461946F8
:10514C00FFF72CBC024B05225A60024A1A607047CA
:10515C000CE7032074570B00002340681A46FFF736
:10516C00F5BB406800220221FFF700BC002240681A
:10517C001146FFF7F3BB002240681146FFF7FEBB58
:10518C00002340681A461946FFF700BC002340680C
:10519C001A461946FFF702BC40680021FFF726BCEF
:1051AC0040680021FFF72ABC4068002281F0010111
:1051BC00FFF7FCBB40680022FFF708BC00224068E8
:1051CC001146FFF70BBC002240681146FFF7F6BBF7
:1051DC002DE9F04395B014460D460746FFF712FE35
:1051EC0000211C220DA8009100F068F940230C93BB
:1051FC0020466B460CAA0021FFF744FA044600280F
:10520C004BD1024601216868FFF7B8FB02218046AA
:10521C0022466868FFF7B2FB009E81462146002EAD
:10522C003BD0002939D17368022B03D00A2B11D043
:10523C00F669F4E7B8F1000FFAD0716906A80431E9
:10524C0007ADFFF70DFE0FCD3C1D0FC42B6823706F
:10525C004146EDE7B9F1000FEAD07469102201A8BC
:10526C0000F02CF906238DF8143001AD04F108037D
:10527C001834186859682A4603C20833A3421546E5
:10528C00F7D101A906A807ADFFF7CAFD0FCD3C1D4C
:10529C000FC42B6823704946CAE70098FFF7EAF958
:1052AC00384615B0BDE8F083024B034A1A60002261
:1052BC005A60704714E70320B0570B00372837B5F6
:1052CC00044602D9002003B030BD031F022B0BD9BA
:1052DC00012822D800F0B8F80021007CFFF792FAE0
:1052EC0080F00100C0B2EEE7114D2978BFF35B8F5F
:1052FC0011F001010BD128460191FEF7C8FE01996E
:10530C0028B10C48FFF7E8FB2846FEF7C5FE094B11
:10531C001878FFF78FFA0028D4D1083C012C05D857
:10532C0000F050F8007CFFF72DFAD9E70120CAE70E
:10533C001CE7032020E70320372838B504460D4628
:10534C000AD8FF2908D0FFF7B9FF28B12946204613
:10535C00BDE83840FFF7A6B938BD38B504460D4650
:10536C00FFF7A8F9FF2810D0062804D84D2323FAFC
:10537C0000F0C30709D42046FFF7A0FF28B1294647
:10538C002046BDE83840FFF79DB938BD7047000096
:10539C0038B5044614252A46002100F08FF82580E4
:1053AC004025074925812846258200F071F80449DB
:1053BC006060284600F06CF8E060204638BD00BF05
:1053CC00E4570B0030B50E4D2978BFF35B8F11F00D
:1053DC00010487B011D12846FEF759FE68B101A827
:1053EC00FFF7D6FF01AA21460648FFF753FE2846D1
:1053FC00FEF752FE044800F04DF8024807B030BDED
:10540C0028E703202CE7032099530B00704700007A
:10541C0038B52025142304460360856005610649D0
:10542C00284600F035F804496060284600F030F852
:10543C00E060204638BD00BFE4570B0010B50446B1
:10544C00FFF7E6FF204610BD30B50E4D2978BFF3AF
:10545C005B8F11F0010487B011D12846FEF717FEBF
:10546C0068B101A8FFF7EAFF01AA21460648FFF739
:10547C0051FE2846FEF710FE044800F00BF80248D7
:10548C0007B030BD44E7032048E7032019540B0054
:10549C00FEF7F9BD002301461A46184600F04CB839
:1054AC000A44914200F1FF3300D1704710B511F856
:1054BC00014B03F8014F9142F9D110BD0244034650
:1054CC00934200D1704703F8011BF9E738B5104B34
:1054DC001D68AB6B0446B3B91820FFF79FFA024660
:1054EC00A86320B90B4B0C484221FFF7A7FA0B49D4
:1054FC000B4BC0E900130B4B83600B238381002102
:10550C000120C2E90401AB6B00221C615A6138BD59
:10551C00FCE50320E5570B00FC570B000E33CDAB1D
:10552C0034126DE6ECDE0500034613F8012B002A5D
:10553C00FBD1181A013870472DE9F843DFF8B88011
:10554C000646D8F800001F460D46914600F056F866
:10555C00254B1C6834B9254C1C60254B13B11B68BA
:10556C00C4F8883063681F2B07DDD8F8000000F002
:10557C0047F84FF0FF30BDE8F8834EB3D4F88800FD
:10558C0088B91C4B23B9D8F8000000F038F8F0E7C4
:10559C004FF48470FFF742FA0028F4D00023C0E9DE
:1055AC004033C4F88800636840F8239001229A4085
:1055BC0000EB8301D0F800311343C0F80031022E08
:1055CC00C1F8807002BFD0F804311343C0F8043125
:1055DC006368D8F800005A1C0233626044F8235008
:1055EC0000F00EF80020C6E7E8E703205CE7032094
:1055FC0000000000294A0B0060E60320704770474A
:10560C00704700001D400B0059400B0081400B00FF
:10561C0085400B00000000002C0100001800000069
:10562C00F40100002C0100005000000000000000FC
:10563C0000000000C74A0B00BD4A0B00B34A0B0028
:10564C00A94A0B009D4A0B00914A0B00A5510B0077
:10565C00AD510B00854A0B007D4A0B00734A0B00C1
:10566C00694A0B00DD510B006170700025592D2526
:10567C006D2D25645425483A254D3A2553257A003D
:10568C0061736374696D6500000000000000000028
:10569C00AD4D0B009D4D0B009F4D0B00000000000D
:1056AC0000000000934E0B00FB4E0B00D14E0B0084
:1056BC002D4B0B00C34E0B00954E0B00A54E0B0053
:1056CC00F54E0B00B54E0B008D4E0B00000000008C
:1056DC0000000000EB4F0B00E14F0B00D74F0B000D
:1056EC008D4F0B00CB4F0B00BF4F0B00A5510B0088
:1056FC00AD510B00B34F0B00AB4F0B00A14F0B0088
:10570C00974F0B00DD510B00000000000000000063
:10571C0025500B0091500B0069500B002D4B0B00CA
:10572C0039500B0055500B0047500B0063500B00C9
:10573C0027500B002B500B00000000000000000055
:10574C00C9500B0013510B00EB500B00CB500B004E
:10575C00F3500B00FB500B0003510B000B510B00D3
:10576C00000000000000000065510B006F510B00A1
:10577C0079510B0083510B00BF4B0B0045510B00B3
:10578C00A5510B00AD510B00B5510B00C1510B00D5
:10579C00C9510B00D3510B00DD510B000000000070
:1057AC000000000065510B006F510B0079510B008C
:1057BC0083510B008D510B0099510B00A5510B001F
:1057CC00AD510B00B5510B00C1510B00C9510B0071
:1057DC00D3510B00DD510B00005245454E54206D4A
:1057EC00616C6C6F632073756363656564656400DD
:1057FC002F6D6E742F776F726B73706163652F777B
:10580C006F726B73706163652F4743432D31302D7D
:10581C00706970656C696E652F6A656E6B696E7305
:10582C002D4743432D31302D706970656C696E6561
:10583C002D34385F32303230313132345F313630E2
:10584C00363138303634312F7372632F6E65776C86
:10585C0069622F6E65776C69622F6C6962632F7356
:10586C0074646C69622F72616E642E6300000000B8
:10587C0069410B0071460B00D14A0B00F94A0B0031
:10588C001D4B0B00CD4B0B00DD4B0B00594C0B0093
:10589C00F54F0B0051510B00B5520B0000000000EE
:0458AC0000000000F8
:0458B00000000000F4
:1058B4008C560B0000E603200000000000000000EE
:1058C40000000000000000000000000000000000D4
:1058D40000000000000000000000000000000000C4
:1058E40000000000000000000000000000000000B4
:1058F40000000000000000000000000000000000A4
:105904000000000000000000000000000000000093
:0C5914000000000000000000ECE7032091
:10592000FFFFFFFF00000102030405060708090A44
:105930000B0C0D0E0F101112131415161718191A3F
:085940001B1C1D1E1F20280086
:045948007856341247
:04000003B000401CED
:00000001FF
